:08000000803102288731FA2F3C
:10072600240095120800163021009700080060305A
:10073600320099009B019D019F019E010800320035
:10074600910192019301940195019601080083316C
:10075600C023833184317F248331AD2B803102283D
:10076600F0007008240091002000911DBB2BBC2BCB
:10077600B72B91112400110808008331A22383317D
:100786008331D023833184310724833183319A2303
:100796008331833196238331080010303C00A0005A
:1007A6001130A10018303D00A0001930A2004030E1
:1007B600240094009501920121000E102400951248
:1007C6000800F800F401F5017008F200F301720860
:1007D600F6007308F700781CF12BF22BF62B76083F
:1007E600F4077708F53D0130F635F70D890BF72B41
:1007F6000310F80C7808031D012C022CEE2B75084B
:10080600F1007408F0000800043022008C00063065
:100816008E00333021008C003A308E0038302300B1
:100826008E0033308C0024008C018E0125008C0153
:100836008E01373026008C003F308E003F30270077
:100846008C003F308E0018303D00A00010303C0078
:10085600A00019303D00A20011303C00A1000800A4
:10086600F3002400951A382C392C7E2C7308F000DE
:10087600F101F035F10DF035F10D0130700784000E
:100886008830713D8500000894007308F000F1017E
:10089600F035F10DF035F10D003070078400883029
:1008A600713D85000008950096017308F000F1017E
:1008B600F035F10DF035F10D023070078400883007
:1008C600713D8500000892007308F000F101F035D3
:1008D600F10DF035F10D0330700784008830713D5D
:1008E60085000008F20021000E087206FE39720625
:1008F6008E002400951608002000C001C1010030BA
:1009060084313324843122000C112000C6010030CA
:100916008331B32384312000B9004608403E860067
:100926008701390881000130B9003908C60702304D
:100936004602031C9F2CA02C8A2C22000C15833106
:100946009323843120004108B900BA014008BB0056
:10095600BC013B08BC00BB0139083B04BE003A0899
:100966003C04BF003F08BA003E08B900BA36B90CCD
:10097600BA36B90CBA36B90C3908F0003A08F100A3
:10098600F201F30100308431F7248431730820002A
:10099600C5007208C4007108C3007008C2003E306A
:1009A600A3008030A2000830A1000130A000450855
:1009B600A7004408A6004308A5004208A400853104
:1009C600A325843120002308C5002208C40021087D
:1009D600C3002008C2004508B8004408B700430811
:1009E600B6004208B5000800F80078080319FC2C88
:1009F600FD2C112DF31F002D012D112D7009FA006C
:100A06007109FB007209FC007309FD00FA0A03195B
:100A1600FB0A0319FC0A0319FD0A192D7308FD00C8
:100A26007208FC007108FB007008FA007308720473
:100A360071047004031D202D212D2A2D0030F30092
:100A46000030F2000030F1000030F000A22D9630A8
:100A5600F4007408F9003A2D0130F4007408F9071F
:100A66000130FD36FC0CFB0CFA0C890B342DFE30E4
:100A76007D05031D3F2D402D2F2D542D0130F400F3
:100A86007408F9070130FA070030FB3D0030FC3DE1
:100A96000030FD3D0130FD36FC0CFB0CFA0C890BD9
:100AA6004E2DFF307D05031D592D5A2D412D642DE8
:100AB6000130F9020130FA35FB0DFC0DFD0D890BF5
:100AC6005E2DFC1B672D682D6E2D023079020318F2
:100AD6006D2D6E2D5B2D7918712D722D7A2DFF30AF
:100AE600FA05FF30FB057F30FC05FF30FD050310DE
:100AF600F90C7908F400F501F601F7011830F43520
:100B0600F50DF60DF70D890B822D7408FA0475089C
:100B1600FB047608FC047708FD0478080319942D75
:100B2600952D9A2DF31F982D992D9A2DFD177D0839
:100B3600F3007C08F2007B08F1007A08F000080058
:100B4600200023088039F9007908A8002335F90028
:100B56007908AE00A21FB02DB12DB22D2E142E088D
:100B66000319B62DB72DC62D2E0A031DBB2DBC2D80
:100B7600C42D0030A3000030A2000030A1000030D8
:100B8600A000A217CE2D0030A3000030A200003036
:100B9600A1000030A00027088039F9007908A806CE
:100BA6002735F9007908AD00A61FDA2DDB2DDC2DDF
:100BB6002D142D080319E02DE12DF02D2D0A031D0E
:100BC600E52DE62DEE2D0030A7000030A600003002
:100BD600A5000030A400A617F82D0030A7000030AD
:100BE600A6000030A5000030A4002D080319FC2D36
:100BF600FD2D022E2E08031D012E022E0B2E003077
:100C0600A3000030A2000030A1000030A000F92FA0
:100C16002008F9007908F00026088331E42385319D
:100C260071082000B4007008B3003308F900FA0117
:100C3600FB01FC017C08AC007B08AB007A08AA002B
:100C46007908A9003408F900FA01FB01FC017C08C7
:100C5600B2007B08B1007A08B0007908AF0021081D
:100C6600F9007908F00025088331E42385317108FD
:100C76002000B4007008B3003308F900FA01FB0144
:100C8600FC017908A9077A08AA3D7B08AB3D7C08D8
:100C9600AC3D3408F900FA01FB01FC017908AF0705
:100CA6007A08B03D7B08B13D7C08B23D2208F900C8
:100CB6007908F00024088331E42385317108200087
:100CC600B4007008B3003308F900FA01FB01FC0117
:100CD6007908A9077A08AA3D7B08AB3D7C08AC3D9C
:100CE6003408F900FA01FB01FC017908AF077A081C
:100CF600B03D7B08B13D7C08B23D0830A935AA0D50
:100D0600AB0DAC0D890B812E2108F9007908F00096
:100D160024088331E423853171082000B40070086B
:100D2600B3003308A9073408AA3D0030AB3DAC3DFB
:100D36002008F9007908F00025088331E42385317D
:100D460071082000B4007008B3003308A9073408FE
:100D5600AA3D0030AB3DAC3D0830A935AA0DAB0D20
:100D6600AC0D890BB02E2008F9007908F000240894
:100D76008331E423853171082000B4007008B30084
:100D86003308A9073408AA3D0030AB3DAC3D210825
:100D9600F9007908F00026088331E42385317108CB
:100DA6002000B4007008B3003308AF073408B03D24
:100DB6000030B13DB23D2208F9007908F00025085F
:100DC6008331E423853171082000B4007008B30034
:100DD6003308AF073408B03D0030B13DB23D2208BC
:100DE600F9007908F00026088331E423853171087B
:100DF6002000B4007008B3003308F9003408FA0084
:100E0600FB01FC010830F935FA0DFB0DFC0D890BD1
:100E1600062F7908AF077A08B03D7B08B13D7C08FC
:100E2600B23D2908F9002A08FA002B08FB002C0815
:100E3600FC001830FC36FB0CFA0CF90C890B1D2F44
:100E46007908AF077A08B03D7B08B13D7C08B23D12
:100E56000830A935AA0DAB0DAC0D890B2C2F2E0829
:100E66002D07F900FA01FA0D7908823EB300FF302A
:100E76007A3DB400552F0130AF35B00DB10DB20D2E
:100E8600890B3F2FAC1F482F492F4A2F2F140130B3
:100E9600A935AA0DAB0DAC0D890B4B2FFF30B3074F
:100EA600FF30B43DB11F582F592F3E2FAD01AC1F57
:100EB6005D2F5E2F7A2FFF302905F900FF302A05B6
:100EC600FA00FF302B05FB007F302C05FC007C0868
:100ED6007B047A0479040319712F722F752FAD01E3
:100EE600AD0A7A2F2F1C782F792F7A2F722F2D0883
:100EF60003197E2F7F2FA72F0130AF070030B03D9B
:100F06000030B13D0030B23D321C8A2F8B2FA72F07
:100F16002F08F9003008FA003108FB003208FC00FF
:100F26000130FD00FC37FB0CFA0CF90CFD0B952F7C
:100F36007C08B2007B08B1007A08B0007908AF00DF
:100F46000130B3070030B43D3408803AF9008030F0
:100F56007902031DB02FFF303302031CB32FB42FC9
:100F6600BE2F7F302000B2008030B1000030B000CC
:100F76000030AF00ED2F20003408803AF9008030B1
:100F86007902031DC82F013033020318CB2FCC2F53
:100F9600D72F00302000B2000030B1000030B00082
:100FA6000030AF00A801ED2F20003308F9007908C2
:100FB600AE00FF30AF05FF30B0057F30B105003021
:100FC600B2052E1CE72FE82FE92FB1172E36F900B0
:100FD6007908B2002808F9007908B2043208A3009B
:100FE6003108A2003008A1002F08A0000800200048
:100FF600C701C80120008331AA2B003440340034D5
:021006000034B4
:020000040001F9
:08000000FF3FFF3FFF3FFF3F00
:08000E00EC3FF33FFF1FFF3F31
:00000001FF
